{
  "_format": "hh-sol-artifact-1",
  "contractName": "DonateContract",
  "sourceName": "contracts/DonateContract.sol",
  "abi": [
    {
      "inputs": [],
      "stateMutability": "nonpayable",
      "type": "constructor"
    },
    {
      "inputs": [],
      "name": "InsuffientBalance",
      "type": "error"
    },
    {
      "inputs": [],
      "name": "NotOwner",
      "type": "error"
    },
    {
      "inputs": [],
      "name": "WithdrawCallFailed",
      "type": "error"
    },
    {
      "anonymous": false,
      "inputs": [
        {
          "indexed": true,
          "internalType": "address",
          "name": "donor",
          "type": "address"
        },
        {
          "indexed": false,
          "internalType": "string",
          "name": "name",
          "type": "string"
        },
        {
          "indexed": false,
          "internalType": "string",
          "name": "message",
          "type": "string"
        },
        {
          "indexed": false,
          "internalType": "uint256",
          "name": "amount",
          "type": "uint256"
        }
      ],
      "name": "NewDonation",
      "type": "event"
    },
    {
      "inputs": [
        {
          "internalType": "address",
          "name": "donor",
          "type": "address"
        }
      ],
      "name": "addressToDonate",
      "outputs": [
        {
          "internalType": "uint256",
          "name": "amountedDonates",
          "type": "uint256"
        }
      ],
      "stateMutability": "view",
      "type": "function"
    },
    {
      "inputs": [
        {
          "internalType": "string",
          "name": "_name",
          "type": "string"
        },
        {
          "internalType": "string",
          "name": "_message",
          "type": "string"
        }
      ],
      "name": "donate",
      "outputs": [],
      "stateMutability": "payable",
      "type": "function"
    },
    {
      "inputs": [],
      "name": "i_owner",
      "outputs": [
        {
          "internalType": "address",
          "name": "",
          "type": "address"
        }
      ],
      "stateMutability": "view",
      "type": "function"
    },
    {
      "inputs": [],
      "name": "totalDonations",
      "outputs": [
        {
          "internalType": "uint256",
          "name": "",
          "type": "uint256"
        }
      ],
      "stateMutability": "view",
      "type": "function"
    },
    {
      "inputs": [],
      "name": "withdraw",
      "outputs": [],
      "stateMutability": "nonpayable",
      "type": "function"
    }
  ],
  "bytecode": "0x60a0604052348015600f57600080fd5b503373ffffffffffffffffffffffffffffffffffffffff1660808173ffffffffffffffffffffffffffffffffffffffff16815250506080516107de61006660003960008181610215015261034001526107de6000f3fe60806040526004361061004a5760003560e01c80631653441c1461004f5780633ccfd60b1461006b578063dba6335f14610082578063de2ed893146100ad578063f840460b146100d8575b600080fd5b610069600480360381019061006491906104da565b610115565b005b34801561007757600080fd5b50610080610213565b005b34801561008e57600080fd5b5061009761033e565b6040516100a49190610593565b60405180910390f35b3480156100b957600080fd5b506100c2610362565b6040516100cf91906105c7565b60405180910390f35b3480156100e457600080fd5b506100ff60048036038101906100fa919061060e565b610368565b60405161010c91906105c7565b60405180910390f35b6000341161014f576040517fd865282a00000000000000000000000000000000000000000000000000000000815260040160405180910390fd5b346000803373ffffffffffffffffffffffffffffffffffffffff1673ffffffffffffffffffffffffffffffffffffffff168152602001908152602001600020600082825461019d919061066a565b9250508190555034600160008282546101b6919061066a565b925050819055503373ffffffffffffffffffffffffffffffffffffffff167f32baf6d7a0619c627b9933a4db4bdd381d00d7e96d25220c8ed19406a90b1cb58383346040516102079392919061071d565b60405180910390a25050565b7f000000000000000000000000000000000000000000000000000000000000000073ffffffffffffffffffffffffffffffffffffffff163373ffffffffffffffffffffffffffffffffffffffff1614610298576040517f30cd747100000000000000000000000000000000000000000000000000000000815260040160405180910390fd5b60003373ffffffffffffffffffffffffffffffffffffffff16476040516102be90610793565b60006040518083038185875af1925050503d80600081146102fb576040519150601f19603f3d011682016040523d82523d6000602084013e610300565b606091505b505090508061033b576040517f8fa0ba9b00000000000000000000000000000000000000000000000000000000815260040160405180910390fd5b50565b7f000000000000000000000000000000000000000000000000000000000000000081565b60015481565b60006020528060005260406000206000915090505481565b6000604051905090565b600080fd5b600080fd5b600080fd5b600080fd5b6000601f19601f8301169050919050565b7f4e487b7100000000000000000000000000000000000000000000000000000000600052604160045260246000fd5b6103e78261039e565b810181811067ffffffffffffffff82111715610406576104056103af565b5b80604052505050565b6000610419610380565b905061042582826103de565b919050565b600067ffffffffffffffff821115610445576104446103af565b5b61044e8261039e565b9050602081019050919050565b82818337600083830152505050565b600061047d6104788461042a565b61040f565b90508281526020810184848401111561049957610498610399565b5b6104a484828561045b565b509392505050565b600082601f8301126104c1576104c0610394565b5b81356104d184826020860161046a565b91505092915050565b600080604083850312156104f1576104f061038a565b5b600083013567ffffffffffffffff81111561050f5761050e61038f565b5b61051b858286016104ac565b925050602083013567ffffffffffffffff81111561053c5761053b61038f565b5b610548858286016104ac565b9150509250929050565b600073ffffffffffffffffffffffffffffffffffffffff82169050919050565b600061057d82610552565b9050919050565b61058d81610572565b82525050565b60006020820190506105a86000830184610584565b92915050565b6000819050919050565b6105c1816105ae565b82525050565b60006020820190506105dc60008301846105b8565b92915050565b6105eb81610572565b81146105f657600080fd5b50565b600081359050610608816105e2565b92915050565b6000602082840312156106245761062361038a565b5b6000610632848285016105f9565b91505092915050565b7f4e487b7100000000000000000000000000000000000000000000000000000000600052601160045260246000fd5b6000610675826105ae565b9150610680836105ae565b92508282019050808211156106985761069761063b565b5b92915050565b600081519050919050565b600082825260208201905092915050565b60005b838110156106d85780820151818401526020810190506106bd565b60008484015250505050565b60006106ef8261069e565b6106f981856106a9565b93506107098185602086016106ba565b6107128161039e565b840191505092915050565b6000606082019050818103600083015261073781866106e4565b9050818103602083015261074b81856106e4565b905061075a60408301846105b8565b949350505050565b600081905092915050565b50565b600061077d600083610762565b91506107888261076d565b600082019050919050565b600061079e82610770565b915081905091905056fea2646970667358221220480345ae3f524f3b13441e99c48846354b80a5da2bfda9ddc2eaf7726b12848364736f6c634300081c0033",
  "linkReferences": {},
  "deployedLinkReferences": {}
}